:060000000A128A11EE2F26
:100BB0007E088A007F0882000A128A11D8250A124C
:100BC0008A118000840A04087D0603190034FF0A94
:100BD0000319FE0ADC2D44340034F53400348C341F
:100BE0000034A43400343534003426340034063460
:100BF0000034F43400340434003424340034143425
:100C00000034073400344E340034853400340E345C
:100C100000341E340034FF30831603138500860130
:100C2000FF30870006309F002030831203138600B8
:100C3000C0308316031394002830831203139400EA
:100C40008316031391012730930083120313CB0102
:100C5000CC014C08C5004B08C4000A128A11782741
:100C60000A128A11153083120313CA004B30C900CF
:100C7000BD30C800C80B3A2EC90B3A2ECA0B3A2E0B
:100C8000412E013083120313CB070318CC0A003026
:100C9000CC07292E0A128A110028F601F31F512EC3
:100CA000522E592EF209F309F20A0319F30AF6013A
:100CB000F60AF11F5C2E5D2E622EF009F109F00A92
:100CC0000319F10A700871040319672E682E972E14
:100CD000F501F50A762E01300310F00DF10DFF3EFF
:100CE000031D6C2E0130F4007408F507F11F792EF6
:100CF0007A2E6B2E71087302031D802E700872020B
:100D0000031C832E842E8A2E7008F2027108031CA5
:100D1000F303F30201300310F10CF00CFF3E031D4E
:100D20008B2E0130F502031D962E972E7A2E760813
:100D300003199B2E9C2EA12EF209F309F20A031926
:100D4000F30A7308F1007208F0000800F601F11FC1
:100D5000AA2EAB2EB22EF009F109F00A0319F10AFE
:100D6000F601F60AF31FB52EB62EBF2EF209F309CF
:100D7000F20A0319F30A0130F4007408F606F701C9
:100D8000F801700871040319C62EC72EFE2EF50156
:100D9000F50AD52E01300310F00DF10DFF3E031DB5
:100DA000CB2E0130F4007408F507F11FD82ED92E90
:100DB000CA2E01300310F70DF80DFF3E031DDA2E89
:100DC00071087302031DE62E70087202031CE92EDF
:100DD000EA2EF12E7008F2027108031CF303F302ED
:100DE000771401300310F10CF00CFF3E031DF22EBE
:100DF0000130F502031DFD2EFE2ED92E76080319B3
:100E0000022F032F082FF709F809F70A0319F80A28
:100E10007808F1007708F0000800243084004D3095
:100E200083120313A0000408A1002030A2002008B0
:100E3000840083130008A300A00A2108840023086B
:100E40008000A10AA20B172F83160313111483121B
:100E50008C1D2B2F2C2F272F8C113A2F42309300D3
:100E60004D2F463093004D2F403093004D2F4E3084
:100E700093004D2F7A08003A03193F2F4D2F790820
:100E8000003A03192E2F013A0319312F033A03199F
:100E9000342F013A0319372F4D2F8C1D502F512F0E
:100EA0004D2F8C110A30F0000030F1007C08F30067
:100EB0007B08F2000A128A114D260A128A11700864
:100EC00083120313A0002007243E8400831300082C
:100ED00093008C1D6C2F6D2F692F8C1183160313BB
:100EE000111583128C1D752F762F712F8C11080010
:100EF0000A30F0000030F100831203134508F300BC
:100F00004408F2000A128A114D260A128A11710849
:100F100083120313C7007008C6000330F9000030C5
:100F2000FA004708FC004608FB000A128A110D2748
:100F30000A128A110230F9000030FA000A30F0007B
:100F40000030F100831203134508F3004408F20057
:100F50000A128A11A6260A128A117108FC0070086A
:100F6000FB000A128A110D270A128A110130F900BA
:100F70000030FA006430F0000030F10083120313F7
:100F80004508F3004408F2000A128A11A6260A1244
:100F90008A117108FC007008FB000A128A110D27E3
:100FA0000A128A110030F900FA00E830F00003302C
:100FB000F100831203134508F3004408F2000A12FB
:100FC0008A11A6260A128A117108FC007008FB001B
:100FD0000A128A110D270A128A11080083136D3034
:100FE000FD000530FE00EB30FF004D3084000A129A
:100FF0008A11DC250A128A1183010A128A110B2E2A
:02400E003A3F37
:00000001FF
